:100BAC0075A15575A1AAE5B954F84406F5B9E4F553
:020BBC00A12274
:10002600EF4E601505A105A105A105A105A105A134
:0A00360005A1EF1F70EA1E80E7220B
:100B6900AD07AC06ED4C600E7FE87E03120026ED62
:070B79001D70F11C80EE224B
:040BE90043C61022CD
:10089D00C29FD29EC29DC2CDC2CC438780E4751C3F
:1008AD003AF51BF51AF5197B0AFAF9F8AF1CAE1BD0
:1008BD00AD1AAC19120178AF038F1DAF1CAE1BAD75
:1008CD001AAC19E47B0AFAF9F81201788F1C8E1B09
:1008DD008D1A8C19E51DC394054011EF2401F51CEB
:1008ED00E43EF51BE43DF51AE43CF519E589540F9A
:1008FD004420F58943C9A0E51CF404F58DD28EC2C0
:07090D0099D29CD2ACD2BCD0
:0109140022C0
:080BD9003098FDC298AF99228B
:080BE1008F993099FDC29922A1
:100B800075A15575A1AAEF600543B101800353B16A
:070B9000FEE4F5A1F5FF22D0
:030040008FFF220D
:100915001201100100000008030401600005010236
:1009250003010902200001010080320904000002D0
:10093500FFFFFF0007058102400000070502024096
:1009450000000403090410034D0035007300740012
:10095500610063006B0014034800610064006500DA
:10096500730032003000300031003031323334351D
:0A0975003637383941424344454605
:100B0000013900013C00013D00013604023A0000B9
:100B10000237000001220001270001230001260006
:100B2000012400013500C101C103C104C100C1029B
:060B30000130000134FF5A
:1005A1008E108F118B12C9EDC9E4FDCCE9CCE92580
:1005B10012FFE433FEECC39FEE6480F87480984030
:1005C10003020654EC7013CFEDCF0DE5112FF58228
:1005D100E43510F5837416F08075BC0113CFEDCFAF
:1005E1000DE5112FF582E43510F5837403F0805F7A
:1005F100EC30E012CFEDCF0DE5112FF582E435108F
:10060100F583E4F08049EC24FEFFE434FFFEEF784B
:1006110002CEC313CE13D8F924FAFFEE343FF513FB
:100621008F14EC30E10A8F82851383E493C4800830
:10063100851482851383E493540F90096F93FFCE41
:10064100EDCE0DE5112EF582E43510F583EFF00CBA
:040651000205AF22CD
:100B37008D1EAF1E7E0078007C027D0112011675A6
:090B47002301E4F527851E22229A
:10097F0043878043C980900003E0FE900002E0FDB2
:10098F00EDFFCE543FCE4E6006EF64014E700475FE
:10099F008DFF22EEC313FEEF13FFD39400EE9401ED
:1009AF00401FEF7803CEC313CE13D8F9FFD39400B3
:1009BF00EE94014004758DF32253877F53C97F80D6
:0709CF0000EFF404F58D2296
:100A2800E4F5E253E27F43E229F5E353E2BF53D111
:100A3800FB75D18043D10175E50275E40075EB08BB
:100A480075D41075EF0075EE4075D21275EA4075D1
:100A5800ED0075EC0075DC0243E10443E10243E17B
:0C0A68000143E18043D81FD2EAD2AF2244
:0100220022BB
:100ABB00900002E014601714602114602B24037063
:100ACB00277531FF7532097533477534042275313B
:100ADB00FF75320975335B753414227531FF75322E
:100AEB000975334B753410227531FF7532FF753331
:050AFB00FF7534162216
:10065500900003E024FE60151460202402702175CB
:1006650031FF75320975331575341280167531FFF2
:100675007532097533277534208008120ABB80034B
:100685007534FFAF347E00D37838E69F18E69E4078
:1006950005EEF608EFF6C37838E6940818E69400F8
:1006A50040047F0880047838E6FF8F34AA32A933E6
:1006B50074FFF583F58265317008E533F47003E561
:1006C50032F4700C7E007F00AB34FD1205A180135F
:1006D500AF347E0078007C007D01AB31AA32A933AE
:1006E500120116C37838E69534F618E69400F678C4
:0406F50039A63422CC
:100A7400900000E0541FFD701C900003E0FE900005
:100A840002E0FBEB64014E700990092E9320E5050A
:100A940080007534FFBD021B900004E024FE600F4B
:100AA4002481700FE5D254BC4402F5D2C202225311
:070AB400D473227534FF2208
:10081B00900000E0541FFD7034900003E0FE900048
:10082B0002E0FBEB64014E702290092E9330E55EE3
:10083B00E5A220E7FB75A15575A1AA75A9C1438750
:10084B000275A15575A1AAE4F5A9228041ED6402B8
:10085B00703C900003E0FE900002E0FDED4E702C2A
:10086B00900005E0FE900004E0FDEDFFEE701BEF45
:10087B00247F600D247F7012E5D4547F440CF5D493
:10088B0022E5D254BF4403F5D22280028000753496
:02089B00FF223A
:10000300200307200404D297D2902003073004046E
:0F001300D297C290300307200404C297D29022E4
:1003EB00900000E030E733E52524FB601C24FB6024
:1003FB000D247A702290000074FFF0A380147836DD
:10040B00E6900000F0753401229000007401F0A317
:10041B007460F0753402220204D0E525246F60521B
:10042B001460552492B40C0040030204D090043F96
:10043B00F828287302048302049302046302048ED7
:10044B000204700204D002047802047B0204D0027E
:10045B0004850204D002047BD2017835E66408706F
:10046B006730016422900002E07835F622C2012247
:10047B008006783D760180498047900002E078360F
:10048B00F6803E12097F8039900003E0FF30E00DCB
:10049B00900002E030E004D2038002C203EF30E1AF
:1004AB000F900002E030E104D2048002C204D200BB
:1004BB007835E6B4080B300108300005C200120095
:0904CB0003E4F534227534FF222C
:1003010085DB34E534640860030203C9900007E02B
:10031100FE900006E0FDEE7837F6ED08F6E4F534E0
:10032100783CF6900001E0F525900000E054606013
:100331000876011203EB0203CCE525B40B00400360
:100341000203C990034BF82828730203A802039EF5
:100351000203C70203A30203C702037102036C0273
:1003610003C702037F0203960203CC120655805B8A
:10037100900002E0FF7837E4F608EFF6804D900038
:1003810000E521F0C37838E6940118E69400403B7B
:100391007534018036900002E0F521802E120A7436
:1003A100802912081B8024E4900000F0A3F0C37898
:1003B10038E6940218E694004005753402800C7802
:1003C10038E6F534800580007534FFE534B4FF0765
:1003D1007525FF75DCCF22E534D3940850058534AB
:0A03E100DD8003E4F5DD75DCC022C9
:1006F900E52524FB6077146003020788C37838E690
:10070900940818E6940040047F0880047838E6FFCE
:100719008F34AA32A93374FFF583F58265317008E5
:10072900E533F47003E532F4700F7E007F00783909
:10073900E6FDAB341205A1801BAF347E00AB3178E6
:1007490039E67C002533F9EC3532FA78007C007DF6
:1007590001120116C37838E69534F618E69400F6C6
:100769007839E53426F68534DD63DC4022783CE6C9
:1007790070137838E6FFE5E354804FF5E38003E42E
:06078900F5DD75DC022223
:0D0BCC00E52564226006E4F5DD43DC02222D
:0E0BBE00E4F5D3E5D254FC4402F5D2C2022283
:100B970030DE11E5D454F34408F5D4752301E4F5A8
:050BA7002785DB22227E
:030043000204D4E0
:1004D400C0E0C0F0C083C082C0D0E8C0E0E9C0E0A2
:1004E400EAC0E0EBC0E0ECC0E0EDC0E0EEC0E0EF5D
:1004F400C0E0E5D95430FFBF1008783B06E6187019
:10050400010630D92EE5D9543F601924FE601F241A
:10051400E2600C14601324F17017120301801212AC
:1005240006F9800D120BCC8008120BBE8003120B4F
:1005340097C2D930D82075DC0275D21275D41275E1
:10054400E300C2DAC2D9C2D8752100C20275220002
:1005540075270075230030DA1EC2DAE5DA30E21AB4
:1005640075A15575A1AA75A9C143870275A15575D1
:10057400A1AA75A900800375D8FFD0E0FFD0E0FEE2
:10058400D0E0FDD0E0FCD0E0FBD0E0FAD0E0F9D040
:0D059400E0F8D0D0D082D083D0F0D0E0329B
:030023000209D6F9
:1009D600C0D0C0E0C0A275D00875A20130981E85AF
:1009E60026E08524820453827F547F6582600E75DB
:1009F6008301852682E599F0052653267FC2983025
:100A06009919C3E5279522400553D4F3800B7583C6
:100A160002852782E0F5990527C299D0A2D0E0D0B9
:020A2600D032CC
:100B5000C2ACC2BC75E10075E206C2AF7F647E0024
:090B6000120B6902003880FB222F
:10020A00E4F516F517120BAC7F057E00120B691286
:10021A00089D439281439281120A28E4F5DDF5D3C1
:10022A00F5D590004004F0A37460F0E52170030254
:10023A0002EA3002030202EAC3E5269524F518C34E
:10024A0064809480500674802518F518C3E51864F4
:10025A008094BE4031E4F515AF24052474002FF5CF
:10026A0082E43401F583E0FF74422515F582E43413
:10027A0000F583EFF053247F0515E515B43ED9D276
:10028A000275D3408057C3783BE69517FF18E69569
:10029A0016FE7836E6FDC3EF9DEE94004042783AAA
:1002AA00E6F51608E6F517E4F515E515C3951850B1
:1002BA0024AF24052474002FF582E43401F583E089
:1002CA00FF74422515F582E43400F583EFF05324D8
:1002DA007F051580D5D202E5182402F5D353D2FC46
:1002EA00E5236005E4F523D299783DE6700302021E
:0702FA0035120B5002023522
:0300000002078F65
:0C078F00787FE4F6D8FD75813D0207D6A6
:10004600E709F608DFFA8046E709F208DFFA803E9C
:1000560088828C83E709F0A3DFFA8032E309F60889
:10006600DFFA8078E309F208DFFA807088828C83F1
:10007600E309F0A3DFFA806489828A83E0A3F608A5
:10008600DFFA805889828A83E0A3F208DFFA804C7F
:1000960080D280FA80C680D4806980F28033801056
:1000A60080A680EA809A80A880DA80E280CA8033BF
:1000B60089828A83ECFAE493A3C8C582C8CCC58337
:1000C600CCF0A3C8C582C8CCC583CCDFE9DEE78007
:1000D6000D89828A83E493A3F608DFF9ECFAA9F086
:1000E600EDFB2289828A83ECFAE0A3C8C582C8CCDC
:1000F600C583CCF0A3C8C582C8CCC583CCDFEADEF5
:10010600E880DB89828A83E493A3F208DFF980CC56
:1001160088F0EF60010E4E60C388F0ED2402B4044F
:100126000050B9F582EB2402B4040050AF232345F6
:0601360082239000967385
:10013C0075F008758200EF2FFFEE33FECD33CDCC7A
:10014C0033CCC58233C5829BED9AEC99E5829840FD
:10015C000CF582EE9BFEED9AFDEC99FC0FD5F0D6DA
:10016C00E4CEFBE4CDFAE4CCF9A88222B800C1B904
:10017C000059BA002DEC8BF084CFCECDFCE5F0CB42
:10018C00F97818EF2FFFEE33FEED33FDEC33FCEB7B
:10019C0033FB10D703994004EB99FB0FD8E5E4F936
:1001AC00FA227818EF2FFFEE33FEED33FDEC33FC23
:1001BC00C933C910D7059BE99A4007EC9BFCE99A17
:1001CC00F90FD8E0E4C9FAE4CCFB2275F010EF2F5C
:1001DC00FFEE33FEED33FDCC33CCC833C810D7075C
:1001EC009BEC9AE899400AED9BFDEC9AFCE899F897
:0E01FC000FD5F0DAE4CDFBE4CCFAE4C8F9222A
:10079B0002020AE493A3F8E493A34003F68001F268
:1007AB0008DFF48029E493A3F85407240CC8C3335F
:1007BB00C4540F4420C8834004F456800146F6DF2E
:1007CB00E4800B0102040810204080900B00E47EB3
:1007DB00019360BCA3FF543F30E509541FFEE49323
:1007EB00A360010ECF54C025E060A840B8E493A3EA
:1007FB00FAE493A3F8E493A3C8C582C8CAC583CA15
:10080B00F0A3C8C582C8CAC583CADFE9DEE780BECC
:010B360000BE
:00000001FF
